{
  "abi": [
    {
      "inputs": [
        {
          "internalType": "uint256",
          "name": "_blockHeight",
          "type": "uint256"
        },
        {
          "internalType": "bytes32",
          "name": "_blockHash",
          "type": "bytes32"
        },
        {
          "internalType": "uint256",
          "name": "_blockTime",
          "type": "uint256"
        },
        {
          "internalType": "uint256",
          "name": "_expectedTarget",
          "type": "uint256"
        },
        {
          "internalType": "bool",
          "name": "_isTestnet",
          "type": "bool"
        }
      ],
      "stateMutability": "nonpayable",
      "type": "constructor"
    },
    {
      "anonymous": false,
      "inputs": [
        {
          "indexed": false,
          "internalType": "uint256",
          "name": "blockHeight",
          "type": "uint256"
        },
        {
          "indexed": false,
          "internalType": "uint256",
          "name": "blockTime",
          "type": "uint256"
        },
        {
          "indexed": false,
          "internalType": "bytes32",
          "name": "blockHash",
          "type": "bytes32"
        }
      ],
      "name": "NewTip",
      "type": "event"
    },
    {
      "anonymous": false,
      "inputs": [
        {
          "indexed": false,
          "internalType": "uint256",
          "name": "blockHeight",
          "type": "uint256"
        },
        {
          "indexed": false,
          "internalType": "uint256",
          "name": "totalDifficulty",
          "type": "uint256"
        },
        {
          "indexed": false,
          "internalType": "uint32",
          "name": "newDifficultyBits",
          "type": "uint32"
        }
      ],
      "name": "NewTotalDifficultySinceRetarget",
      "type": "event"
    },
    {
      "inputs": [
        {
          "internalType": "uint256",
          "name": "number",
          "type": "uint256"
        }
      ],
      "name": "getBlockHash",
      "outputs": [
        {
          "internalType": "bytes32",
          "name": "",
          "type": "bytes32"
        }
      ],
      "stateMutability": "view",
      "type": "function"
    },
    {
      "inputs": [],
      "name": "getLatestBlockHeight",
      "outputs": [
        {
          "internalType": "uint256",
          "name": "",
          "type": "uint256"
        }
      ],
      "stateMutability": "view",
      "type": "function"
    },
    {
      "inputs": [],
      "name": "getLatestBlockTime",
      "outputs": [
        {
          "internalType": "uint256",
          "name": "",
          "type": "uint256"
        }
      ],
      "stateMutability": "view",
      "type": "function"
    },
    {
      "inputs": [
        {
          "internalType": "bytes32",
          "name": "bits",
          "type": "bytes32"
        }
      ],
      "name": "getTarget",
      "outputs": [
        {
          "internalType": "uint256",
          "name": "",
          "type": "uint256"
        }
      ],
      "stateMutability": "pure",
      "type": "function"
    },
    {
      "inputs": [],
      "name": "isTestnet",
      "outputs": [
        {
          "internalType": "bool",
          "name": "",
          "type": "bool"
        }
      ],
      "stateMutability": "view",
      "type": "function"
    },
    {
      "inputs": [
        {
          "internalType": "uint256",
          "name": "blockHeight",
          "type": "uint256"
        },
        {
          "internalType": "bytes",
          "name": "blockHeaders",
          "type": "bytes"
        }
      ],
      "name": "submit",
      "outputs": [],
      "stateMutability": "nonpayable",
      "type": "function"
    }
  ],
  "bytecode": {
    "object": "0x608060405234801561001057600080fd5b50604051610dee380380610dee83398101604081905261002f91610061565b600085815260026020526040812094909455939092556001556004556005805460ff19169115159190911790556100b3565b600080600080600060a0868803121561007957600080fd5b85519450602086015193506040860151925060608601519150608086015180151581146100a557600080fd5b809150509295509295909350565b610d2c806100c26000396000f3fe608060405234801561001057600080fd5b50600436106100625760003560e01c806332c258321461006757806392108c861461007e578063a9c2d7ab1461009b578063d1a2eab2146100ae578063e875aa5d146100c3578063ee82ac5e146100cb575b600080fd5b6001545b6040519081526020015b60405180910390f35b60055461008b9060ff1681565b6040519015158152602001610075565b61006b6100a9366004610ab3565b6100eb565b6100c16100bc366004610acc565b61012d565b005b60005461006b565b61006b6100d9366004610ab3565b60009081526002602052604090205490565b6000600382811a90600284901a600890811b600186901a17901b84841a179083906101169084610b5e565b610121906008610b75565b9190911b949350505050565b600061013a605083610baa565b905081610148826050610b75565b146101905760405162461bcd60e51b81526020600482015260136024820152720eee4dedcce40d0cac2c8cae440d8cadccee8d606b1b60448201526064015b60405180910390fd5b600081116101e05760405162461bcd60e51b815260206004820152601e60248201527f6d757374207375626d6974206174206c65617374206f6e6520626c6f636b00006044820152606401610187565b600060016101ee8387610bbe565b6101f89190610b5e565b905060006102086107e087610baa565b905060006102186107e084610baa565b905060006107e060005461022c9190610baa565b9050808314801561023c57508082145b156102f85760005484116102925760405162461bcd60e51b815260206004820152601760248201527f636861696e207365676d656e7420746f6f2073686f72740000000000000000006044820152606401610187565b60005b858110156102f2576102e06102aa828b610bbe565b89896102b7856050610b75565b906102c3866001610bbe565b6102ce906050610b75565b926102db93929190610bd6565b61067c565b806102ea81610c00565b915050610295565b506105af565b610303600182610b5e565b8310156103525760405162461bcd60e51b815260206004820152601760248201527f616e6369656e7420726574617267657420706572696f640000000000000000006044820152606401610187565b808210156103b45760405162461bcd60e51b815260206004820152602960248201527f636861696e207365676d656e7420656e647320696e206f6c6420726574617267604482015268195d081c195c9a5bd960ba1b6064820152608401610187565b60006103c2836107e0610b75565b90506000600019848403610409576000836000546103e09190610b5e565b6103eb906001610bbe565b9050600454826103fb9190610baa565b6104059082610b75565b9250505b60005b888110156104405761042e610421828e610bbe565b8c8c6102b7856050610b75565b8061043881610c00565b91505061040c565b50600061044d8489610b5e565b610458906001610bbe565b905060006004548361046a9190610baa565b6104749083610b75565b90508381116104c55760405162461bcd60e51b815260206004820152601860248201527f746f74616c20646966666963756c747920746f6f206c6f7700000000000000006044820152606401610187565b60006104d260088d610b5e565b905060006105238e838f6104e7826004610bbe565b926104f493929190610bd6565b6104fd91610c19565b60d881901c63ff00ff001662ff00ff60e89290921c9190911617601081811b91901c1790565b604080518d81526020810186905263ffffffff83168183015290519192507f452ea9c9e4985cb8cc7199131fd292d600dae30f407e749b6ca7e7f4c7690cf7919081900360600190a160006105798c6001610bbe565b90505b60005481116105a6576000818152600260205260408120558061059e81610c00565b91505061057c565b50505050505050505b60008481556105bf600c88610b5e565b905060008882896105d1826004610bbe565b926105de93929190610bd6565b6105e791610c19565b60e01c905061061481600881811c62ff00ff1663ff00ff009290911b9190911617601081811c91901b1790565b63ffffffff1660018190556000878152600260205260409020547f11cedc7f83a9a6f5228b8fcd3c3c0ae686a51e2e04ea46923e3491a32a4bbaa89188916040805193845260208401929092529082015260600160405180910390a150505050505050505050565b6050811461068c5761068c610c49565b600061088e60028085856040516106a4929190610c5f565b602060405180830381855afa1580156106c1573d6000803e3d6000fd5b5050506040513d601f19601f820116820180604052508101906106e49190610c6f565b6040516020016106f691815260200190565b60408051601f198184030181529082905261071091610c88565b602060405180830381855afa15801561072d573d6000803e3d6000fd5b5050506040513d601f19601f820116820180604052508101906107509190610c6f565b7bffffffff000000000000000000000000ffffffff00000000000000007eff000000ff000000ff000000ff000000ff000000ff000000ff000000ff0000600883811c9182167fff000000ff000000ff000000ff000000ff000000ff000000ff000000ff0000009490911b93841617601090811c7cff000000ff000000ff000000ff000000ff000000ff000000ff000000ff9092167dff000000ff000000ff000000ff000000ff000000ff000000ff000000ff009094169390931790921b91909117602081811c9283167fffffffff000000000000000000000000ffffffff0000000000000000000000009290911b91821617604090811c73ffffffff000000000000000000000000ffffffff90931677ffffffff000000000000000000000000ffffffff0000000090921691909117901b17608081811c91901b1790565b60008581526002602052604081208290559091506108bc6108b3602460048688610bd6565b61075091610cc3565b9050600260006108cd600188610b5e565b81526020019081526020016000205481146109175760405162461bcd60e51b815260206004820152600a602482015269189859081c185c995b9d60b21b6044820152606401610187565b806109645760405162461bcd60e51b815260206004820152601e60248201527f706172656e7420626c6f636b206e6f7420796574207375626d697474656400006044820152606401610187565b6000610974604c60488688610bd6565b61097d91610cc3565b9050600061098a826100eb565b90508084106109db5760405162461bcd60e51b815260206004820152601760248201527f626c6f636b20686173682061626f7665207461726765740000000000000000006044820152606401610187565b60055460ff16156109ef5750505050505050565b6109fb6107e088610ce2565b600003610a6157600454600282901c10610a575760405162461bcd60e51b815260206004820152601860248201527f3c32352520646966666963756c747920726574617267657400000000000000006044820152606401610187565b6004819055610aaa565b6004548114610aaa5760405162461bcd60e51b815260206004820152601560248201527477726f6e6720646966666963756c7479206269747360581b6044820152606401610187565b50505050505050565b600060208284031215610ac557600080fd5b5035919050565b600080600060408486031215610ae157600080fd5b83359250602084013567ffffffffffffffff80821115610b0057600080fd5b818601915086601f830112610b1457600080fd5b813581811115610b2357600080fd5b876020828501011115610b3557600080fd5b6020830194508093505050509250925092565b634e487b7160e01b600052601160045260246000fd5b600082821015610b7057610b70610b48565b500390565b6000816000190483118215151615610b8f57610b8f610b48565b500290565b634e487b7160e01b600052601260045260246000fd5b600082610bb957610bb9610b94565b500490565b60008219821115610bd157610bd1610b48565b500190565b60008085851115610be657600080fd5b83861115610bf357600080fd5b5050820193919092039150565b600060018201610c1257610c12610b48565b5060010190565b6001600160e01b03198135818116916004851015610c415780818660040360031b1b83161692505b505092915050565b634e487b7160e01b600052600160045260246000fd5b8183823760009101908152919050565b600060208284031215610c8157600080fd5b5051919050565b6000825160005b81811015610ca95760208186018101518583015201610c8f565b81811115610cb8576000828501525b509190910192915050565b80356020831015610cdc57600019602084900360031b1b165b92915050565b600082610cf157610cf1610b94565b50069056fea2646970667358221220151c893318ce16f28d1bdbb9d9b29ca767015d73d93a1b8582c8aa9fe3d5e83c64736f6c634300080f0033",
    "linkReferences": {}
  },
  "methodIdentifiers": {
    "getBlockHash(uint256)": "ee82ac5e",
    "getLatestBlockHeight()": "e875aa5d",
    "getLatestBlockTime()": "32c25832",
    "getTarget(bytes32)": "a9c2d7ab",
    "isTestnet()": "92108c86",
    "submit(uint256,bytes)": "d1a2eab2"
  },
  "id": 8
}