{
  "abi": [
    {
      "inputs": [
        {
          "internalType": "uint256",
          "name": "_blockHeight",
          "type": "uint256"
        },
        {
          "internalType": "bytes32",
          "name": "_blockHash",
          "type": "bytes32"
        },
        {
          "internalType": "uint256",
          "name": "_blockTime",
          "type": "uint256"
        },
        {
          "internalType": "uint256",
          "name": "_expectedTarget",
          "type": "uint256"
        },
        {
          "internalType": "bool",
          "name": "_isTestnet",
          "type": "bool"
        }
      ],
      "stateMutability": "nonpayable",
      "type": "constructor"
    },
    {
      "anonymous": false,
      "inputs": [
        {
          "indexed": false,
          "internalType": "uint256",
          "name": "blockHeight",
          "type": "uint256"
        },
        {
          "indexed": false,
          "internalType": "uint256",
          "name": "blockTime",
          "type": "uint256"
        },
        {
          "indexed": false,
          "internalType": "bytes32",
          "name": "blockHash",
          "type": "bytes32"
        }
      ],
      "name": "NewTip",
      "type": "event"
    },
    {
      "anonymous": false,
      "inputs": [
        {
          "indexed": false,
          "internalType": "uint256",
          "name": "blockHeight",
          "type": "uint256"
        },
        {
          "indexed": false,
          "internalType": "uint256",
          "name": "totalDifficulty",
          "type": "uint256"
        },
        {
          "indexed": false,
          "internalType": "uint32",
          "name": "newDifficultyBits",
          "type": "uint32"
        }
      ],
      "name": "NewTotalDifficultySinceRetarget",
      "type": "event"
    },
    {
      "anonymous": false,
      "inputs": [
        {
          "indexed": false,
          "internalType": "uint256",
          "name": "count",
          "type": "uint256"
        },
        {
          "indexed": false,
          "internalType": "bytes32",
          "name": "oldTip",
          "type": "bytes32"
        },
        {
          "indexed": false,
          "internalType": "bytes32",
          "name": "newTip",
          "type": "bytes32"
        }
      ],
      "name": "Reorg",
      "type": "event"
    },
    {
      "inputs": [
        {
          "internalType": "uint256",
          "name": "number",
          "type": "uint256"
        }
      ],
      "name": "getBlockHash",
      "outputs": [
        {
          "internalType": "bytes32",
          "name": "",
          "type": "bytes32"
        }
      ],
      "stateMutability": "view",
      "type": "function"
    },
    {
      "inputs": [],
      "name": "getLatestBlockHeight",
      "outputs": [
        {
          "internalType": "uint256",
          "name": "",
          "type": "uint256"
        }
      ],
      "stateMutability": "view",
      "type": "function"
    },
    {
      "inputs": [],
      "name": "getLatestBlockTime",
      "outputs": [
        {
          "internalType": "uint256",
          "name": "",
          "type": "uint256"
        }
      ],
      "stateMutability": "view",
      "type": "function"
    },
    {
      "inputs": [
        {
          "internalType": "bytes32",
          "name": "bits",
          "type": "bytes32"
        }
      ],
      "name": "getTarget",
      "outputs": [
        {
          "internalType": "uint256",
          "name": "",
          "type": "uint256"
        }
      ],
      "stateMutability": "pure",
      "type": "function"
    },
    {
      "inputs": [],
      "name": "isTestnet",
      "outputs": [
        {
          "internalType": "bool",
          "name": "",
          "type": "bool"
        }
      ],
      "stateMutability": "view",
      "type": "function"
    },
    {
      "inputs": [],
      "name": "longestReorg",
      "outputs": [
        {
          "internalType": "uint256",
          "name": "",
          "type": "uint256"
        }
      ],
      "stateMutability": "view",
      "type": "function"
    },
    {
      "inputs": [
        {
          "internalType": "uint256",
          "name": "",
          "type": "uint256"
        }
      ],
      "name": "periodToTarget",
      "outputs": [
        {
          "internalType": "uint256",
          "name": "",
          "type": "uint256"
        }
      ],
      "stateMutability": "view",
      "type": "function"
    },
    {
      "inputs": [
        {
          "internalType": "uint256",
          "name": "blockHeight",
          "type": "uint256"
        },
        {
          "internalType": "bytes",
          "name": "blockHeaders",
          "type": "bytes"
        }
      ],
      "name": "submit",
      "outputs": [],
      "stateMutability": "nonpayable",
      "type": "function"
    }
  ],
  "bytecode": {
    "object": "0x60a060405234801561001057600080fd5b50604051610f91380380610f9183398101604081905261002f91610079565b6000858152600260205260408120859055858155600184905582906003906100596107e0896100cb565b81526020810191909152604001600020551515608052506100ed92505050565b600080600080600060a0868803121561009157600080fd5b85519450602086015193506040860151925060608601519150608086015180151581146100bd57600080fd5b809150509295509295909350565b6000826100e857634e487b7160e01b600052601260045260246000fd5b500490565b608051610e7c6101156000396000818160d601528181610aef0152610b7e0152610e7c6000f3fe608060405234801561001057600080fd5b50600436106100885760003560e01c8063a9c2d7ab1161005b578063a9c2d7ab14610108578063d1a2eab21461011b578063e875aa5d14610130578063ee82ac5e1461013857600080fd5b80630d2b28601461008d57806332c25832146100c057806376e92c84146100c857806392108c86146100d1575b600080fd5b6100ad61009b366004610c04565b60036020526000908152604090205481565b6040519081526020015b60405180910390f35b6001546100ad565b6100ad60045481565b6100f87f000000000000000000000000000000000000000000000000000000000000000081565b60405190151581526020016100b7565b6100ad610116366004610c04565b610158565b61012e610129366004610c1d565b61019a565b005b6000546100ad565b6100ad610146366004610c04565b60009081526002602052604090205490565b6000600382811a90600284901a600890811b600186901a17901b84841a179083906101839084610caf565b61018e906008610cc6565b9190911b949350505050565b60006101a7605083610cfb565b9050816101b5826050610cc6565b146101fd5760405162461bcd60e51b81526020600482015260136024820152720eee4dedcce40d0cac2c8cae440d8cadccee8d606b1b60448201526064015b60405180910390fd5b6000811161024d5760405162461bcd60e51b815260206004820152601e60248201527f6d757374207375626d6974206174206c65617374206f6e6520626c6f636b000060448201526064016101f4565b60006107e060005461025f9190610cfb565b90506000600161026f8488610d0f565b6102799190610caf565b905060006102896107e083610cfb565b9050828110156102d35760405162461bcd60e51b81526020600482015260156024820152741bdb1908191a59999a58dd5b1d1e481c195c9a5bd9605a1b60448201526064016101f4565b60006107e06102e360018a610caf565b6102ed9190610cfb565b905060008183111561033b57610304826001610d0f565b831461031257610312610d27565b84830361032c57610325856000546106a7565b905061033b565b81851461033b5761033b610d27565b6000805481526002602052604081205490805b888110156103be576000610362828e610d0f565b905061039e818d8d610375866050610cc6565b90610381876001610d0f565b61038c906050610cc6565b9261039993929190610d3d565b61071f565b6103a89084610d0f565b92505080806103b690610d67565b91505061034e565b508385111561051c573660008b8b6103d760018d610caf565b6103e2906050610cc6565b6103ed928290610d3d565b90925090506000610434610405604c60488587610d3d565b61040e91610d80565b60d881901c63ff00ff001662ff00ff60e89290921c9190911617601081811b91901c1790565b90506000610442898b6106a7565b90508681116104935760405162461bcd60e51b815260206004820152601d60248201527f696e73756666696369656e7420746f74616c20646966666963756c747900000060448201526064016101f4565b60006104a08b6001610d0f565b90505b60005481116104cd57600081815260026020526040812055806104c581610d67565b9150506104a3565b50604080518b81526020810183905263ffffffff84168183015290517f452ea9c9e4985cb8cc7199131fd292d600dae30f407e749b6ca7e7f4c7690cf79181900360600190a15050505061058b565b86851461052b5761052b610d27565b83851461053a5761053a610d27565b600054861161058b5760405162461bcd60e51b815260206004820152601960248201527f696e73756666696369656e7420636861696e206c656e6774680000000000000060448201526064016101f4565b600086815561059b600c8b610caf565b905060008b828c6105ad826004610d0f565b926105ba93929190610d3d565b6105c391610d80565b60e01c90506105f081600881811c62ff00ff1663ff00ff009290911b9190911617601081811c91901b1790565b63ffffffff16600155600088815260026020526040812054600154604080518c8152602081019290925281018290529091507f11cedc7f83a9a6f5228b8fcd3c3c0ae686a51e2e04ea46923e3491a32a4bbaa89060600160405180910390a183156106975760408051858152602081018790529081018290527fea952b3dfe43a8e680ea58302c72429cd78ef0537abeaf75797ef9bb0496cefc9060600160405180910390a15b5050505050505050505050505050565b600082815260036020526040812054816106c382600019610cfb565b905060006106d3866107e0610cc6565b6106dd9086610caf565b6106e8906001610d0f565b9050600181101580156106fd57506107e08111155b61070957610709610d27565b6107138282610cc6565b93505050505b92915050565b60006050821461073157610731610d27565b60006109336002808686604051610749929190610db0565b602060405180830381855afa158015610766573d6000803e3d6000fd5b5050506040513d601f19601f820116820180604052508101906107899190610dc0565b60405160200161079b91815260200190565b60408051601f19818403018152908290526107b591610dd9565b602060405180830381855afa1580156107d2573d6000803e3d6000fd5b5050506040513d601f19601f820116820180604052508101906107f59190610dc0565b7bffffffff000000000000000000000000ffffffff00000000000000007eff000000ff000000ff000000ff000000ff000000ff000000ff000000ff0000600883811c9182167fff000000ff000000ff000000ff000000ff000000ff000000ff000000ff0000009490911b93841617601090811c7cff000000ff000000ff000000ff000000ff000000ff000000ff000000ff9092167dff000000ff000000ff000000ff000000ff000000ff000000ff000000ff009094169390931790921b91909117602081811c9283167fffffffff000000000000000000000000ffffffff0000000000000000000000009290911b91821617604090811c73ffffffff000000000000000000000000ffffffff90931677ffffffff000000000000000000000000ffffffff0000000090921691909117901b17608081811c91901b1790565b6000868152600260205260409020549091508181158015906109555750808214155b1561095f57600193505b600087815260026020526040812082905561098a61098160246004898b610d3d565b6107f591610e14565b90506002600061099b60018b610caf565b81526020019081526020016000205481146109e55760405162461bcd60e51b815260206004820152600a602482015269189859081c185c995b9d60b21b60448201526064016101f4565b80610a325760405162461bcd60e51b815260206004820152601e60248201527f706172656e7420626c6f636b206e6f7420796574207375626d6974746564000060448201526064016101f4565b6000610a42604c6048898b610d3d565b610a4b91610e14565b90506000610a5882610158565b9050808610610aa95760405162461bcd60e51b815260206004820152601760248201527f626c6f636b20686173682061626f76652074617267657400000000000000000060448201526064016101f4565b6000610ab76107e08c610cfb565b9050610ac56107e08c610e32565b600003610b7c576000600381610adc600185610caf565b81526020019081526020016000205490507f0000000000000000000000000000000000000000000000000000000000000000610b655780600284901c10610b655760405162461bcd60e51b815260206004820152601860248201527f3c32352520646966666963756c7479207265746172676574000000000000000060448201526064016101f4565b506000818152600360205260409020829055610bf6565b7f0000000000000000000000000000000000000000000000000000000000000000610bf6576000818152600360205260409020548214610bf65760405162461bcd60e51b815260206004820152601560248201527477726f6e6720646966666963756c7479206269747360581b60448201526064016101f4565b505050505050509392505050565b600060208284031215610c1657600080fd5b5035919050565b600080600060408486031215610c3257600080fd5b83359250602084013567ffffffffffffffff80821115610c5157600080fd5b818601915086601f830112610c6557600080fd5b813581811115610c7457600080fd5b876020828501011115610c8657600080fd5b6020830194508093505050509250925092565b634e487b7160e01b600052601160045260246000fd5b600082821015610cc157610cc1610c99565b500390565b6000816000190483118215151615610ce057610ce0610c99565b500290565b634e487b7160e01b600052601260045260246000fd5b600082610d0a57610d0a610ce5565b500490565b60008219821115610d2257610d22610c99565b500190565b634e487b7160e01b600052600160045260246000fd5b60008085851115610d4d57600080fd5b83861115610d5a57600080fd5b5050820193919092039150565b600060018201610d7957610d79610c99565b5060010190565b6001600160e01b03198135818116916004851015610da85780818660040360031b1b83161692505b505092915050565b8183823760009101908152919050565b600060208284031215610dd257600080fd5b5051919050565b6000825160005b81811015610dfa5760208186018101518583015201610de0565b81811115610e09576000828501525b509190910192915050565b8035602083101561071957600019602084900360031b1b1692915050565b600082610e4157610e41610ce5565b50069056fea2646970667358221220b66b6dd387a064b7403d8cfaa09097da2d512f2591c04e24193b016210ad9cc864736f6c634300080f0033",
    "linkReferences": {}
  },
  "methodIdentifiers": {
    "getBlockHash(uint256)": "ee82ac5e",
    "getLatestBlockHeight()": "e875aa5d",
    "getLatestBlockTime()": "32c25832",
    "getTarget(bytes32)": "a9c2d7ab",
    "isTestnet()": "92108c86",
    "longestReorg()": "76e92c84",
    "periodToTarget(uint256)": "0d2b2860",
    "submit(uint256,bytes)": "d1a2eab2"
  },
  "id": 8
}