{
  "abi": [
    {
      "inputs": [
        {
          "internalType": "uint256",
          "name": "_blockHeight",
          "type": "uint256"
        },
        {
          "internalType": "bytes32",
          "name": "_blockHash",
          "type": "bytes32"
        },
        {
          "internalType": "uint256",
          "name": "_blockTime",
          "type": "uint256"
        },
        {
          "internalType": "uint256",
          "name": "_expectedTarget",
          "type": "uint256"
        },
        {
          "internalType": "bool",
          "name": "_isTestnet",
          "type": "bool"
        }
      ],
      "stateMutability": "nonpayable",
      "type": "constructor"
    },
    {
      "anonymous": false,
      "inputs": [
        {
          "indexed": false,
          "internalType": "uint256",
          "name": "blockHeight",
          "type": "uint256"
        },
        {
          "indexed": false,
          "internalType": "uint256",
          "name": "blockTime",
          "type": "uint256"
        },
        {
          "indexed": false,
          "internalType": "bytes32",
          "name": "blockHash",
          "type": "bytes32"
        }
      ],
      "name": "NewTip",
      "type": "event"
    },
    {
      "anonymous": false,
      "inputs": [
        {
          "indexed": false,
          "internalType": "uint256",
          "name": "blockHeight",
          "type": "uint256"
        },
        {
          "indexed": false,
          "internalType": "uint256",
          "name": "totalDifficulty",
          "type": "uint256"
        },
        {
          "indexed": false,
          "internalType": "uint32",
          "name": "newDifficultyBits",
          "type": "uint32"
        }
      ],
      "name": "NewTotalDifficultySinceRetarget",
      "type": "event"
    },
    {
      "anonymous": false,
      "inputs": [
        {
          "indexed": false,
          "internalType": "uint256",
          "name": "count",
          "type": "uint256"
        },
        {
          "indexed": false,
          "internalType": "bytes32",
          "name": "oldTip",
          "type": "bytes32"
        },
        {
          "indexed": false,
          "internalType": "bytes32",
          "name": "newTip",
          "type": "bytes32"
        }
      ],
      "name": "Reorg",
      "type": "event"
    },
    {
      "inputs": [
        {
          "internalType": "uint256",
          "name": "",
          "type": "uint256"
        }
      ],
      "name": "blockHashes",
      "outputs": [
        {
          "internalType": "bytes32",
          "name": "",
          "type": "bytes32"
        }
      ],
      "stateMutability": "view",
      "type": "function"
    },
    {
      "inputs": [
        {
          "internalType": "uint256",
          "name": "blockNum",
          "type": "uint256"
        }
      ],
      "name": "getBlockHash",
      "outputs": [
        {
          "internalType": "bytes32",
          "name": "",
          "type": "bytes32"
        }
      ],
      "stateMutability": "view",
      "type": "function"
    },
    {
      "inputs": [],
      "name": "getLatestBlockHeight",
      "outputs": [
        {
          "internalType": "uint256",
          "name": "",
          "type": "uint256"
        }
      ],
      "stateMutability": "view",
      "type": "function"
    },
    {
      "inputs": [],
      "name": "getLatestBlockTime",
      "outputs": [
        {
          "internalType": "uint256",
          "name": "",
          "type": "uint256"
        }
      ],
      "stateMutability": "view",
      "type": "function"
    },
    {
      "inputs": [
        {
          "internalType": "bytes32",
          "name": "bits",
          "type": "bytes32"
        }
      ],
      "name": "getTarget",
      "outputs": [
        {
          "internalType": "uint256",
          "name": "",
          "type": "uint256"
        }
      ],
      "stateMutability": "pure",
      "type": "function"
    },
    {
      "inputs": [],
      "name": "isTestnet",
      "outputs": [
        {
          "internalType": "bool",
          "name": "",
          "type": "bool"
        }
      ],
      "stateMutability": "view",
      "type": "function"
    },
    {
      "inputs": [],
      "name": "latestBlockIx",
      "outputs": [
        {
          "internalType": "uint256",
          "name": "",
          "type": "uint256"
        }
      ],
      "stateMutability": "view",
      "type": "function"
    },
    {
      "inputs": [],
      "name": "longestReorg",
      "outputs": [
        {
          "internalType": "uint256",
          "name": "",
          "type": "uint256"
        }
      ],
      "stateMutability": "view",
      "type": "function"
    },
    {
      "inputs": [
        {
          "internalType": "uint256",
          "name": "",
          "type": "uint256"
        }
      ],
      "name": "periodToTarget",
      "outputs": [
        {
          "internalType": "uint256",
          "name": "",
          "type": "uint256"
        }
      ],
      "stateMutability": "view",
      "type": "function"
    },
    {
      "inputs": [
        {
          "internalType": "uint256",
          "name": "blockHeight",
          "type": "uint256"
        },
        {
          "internalType": "bytes",
          "name": "blockHeaders",
          "type": "bytes"
        }
      ],
      "name": "submit",
      "outputs": [],
      "stateMutability": "nonpayable",
      "type": "function"
    }
  ],
  "bytecode": {
    "object": "0x60a060405234801561001057600080fd5b5060405161112d38038061112d83398101604081905261002f91610070565b60028490556000858155600184905582906103eb906100506107e0896100c2565b81526020810191909152604001600020551515608052506100e492505050565b600080600080600060a0868803121561008857600080fd5b85519450602086015193506040860151925060608601519150608086015180151581146100b457600080fd5b809150509295509295909350565b6000826100df57634e487b7160e01b600052601260045260246000fd5b500490565b60805161102061010d6000396000818161010101528181610c2d0152610cbd01526110206000f3fe608060405234801561001057600080fd5b506004361061009e5760003560e01c8063a9c2d7ab11610066578063a9c2d7ab14610133578063d1a2eab214610146578063e870c9141461015b578063e875aa5d14610165578063ee82ac5e1461016d57600080fd5b80630d2b2860146100a357806332c25832146100d757806334cdf78d146100df57806376e92c84146100f257806392108c86146100fc575b600080fd5b6100c46100b1366004610d92565b6103eb6020526000908152604090205481565b6040519081526020015b60405180910390f35b6001546100c4565b6100c46100ed366004610d92565b610180565b6100c46103ec5481565b6101237f000000000000000000000000000000000000000000000000000000000000000081565b60405190151581526020016100ce565b6100c4610141366004610d92565b610198565b610159610154366004610dab565b6101da565b005b6100c46103ea5481565b6000546100c4565b6100c461017b366004610d92565b6106fb565b6002816103e8811061019157600080fd5b0154905081565b6000600382811a90600284901a600890811b600186901a17901b84841a179083906101c39084610e53565b6101ce906008610e6a565b9190911b949350505050565b60006101e7605083610e9f565b9050816101f5826050610e6a565b1461023d5760405162461bcd60e51b81526020600482015260136024820152720eee4dedcce40d0cac2c8cae440d8cadccee8d606b1b60448201526064015b60405180910390fd5b6000811161028d5760405162461bcd60e51b815260206004820152601e60248201527f6d757374207375626d6974206174206c65617374206f6e6520626c6f636b00006044820152606401610234565b6101f460005461029d9190610e53565b84116102d35760405162461bcd60e51b815260206004820152600560248201526472656f726760d81b6044820152606401610234565b60006107e06000546102e59190610e9f565b9050600060016102f58488610eb3565b6102ff9190610e53565b9050600061030f6107e083610e9f565b9050828110156103595760405162461bcd60e51b81526020600482015260156024820152741bdb1908191a59999a58dd5b1d1e481c195c9a5bd9605a1b6044820152606401610234565b60006107e061036960018a610e53565b6103739190610e9f565b90506000818311156103c15761038a826001610eb3565b831461039857610398610ecb565b8483036103b2576103ab85600054610791565b90506103c1565b8185146103c1576103c1610ecb565b60006103ce6000546106fb565b90506000805b888110156104445760006103e8828e610eb3565b9050610424818d8d6103fb866050610e6a565b90610407876001610eb3565b610412906050610e6a565b9261041f93929190610ee1565b61080a565b61042e9084610eb3565b925050808061043c90610f0b565b9150506103d4565b5083851115610567573660008b8b61045d60018d610e53565b610468906050610e6a565b610473928290610ee1565b909250905060006104ba61048b604c60488587610ee1565b61049491610f24565b60d881901c63ff00ff001662ff00ff60e89290921c9190911617601081811b91901c1790565b905060006104c8898b610791565b90508681116105195760405162461bcd60e51b815260206004820152601d60248201527f696e73756666696369656e7420746f74616c20646966666963756c74790000006044820152606401610234565b604080518b81526020810183905263ffffffff84168183015290517f452ea9c9e4985cb8cc7199131fd292d600dae30f407e749b6ca7e7f4c7690cf79181900360600190a1505050506105d6565b86851461057657610576610ecb565b83851461058557610585610ecb565b60005486116105d65760405162461bcd60e51b815260206004820152601960248201527f696e73756666696369656e7420636861696e206c656e677468000000000000006044820152606401610234565b6105df86610d45565b6103ea5560008681556105f3600c8b610e53565b905060008b828c610605826004610eb3565b9261061293929190610ee1565b61061b91610f24565b60e01c905061064881600881811c62ff00ff1663ff00ff009290911b9190911617601081811c91901b1790565b63ffffffff16600155600061065c896106fb565b600154604080518c8152602081019290925281018290529091507f11cedc7f83a9a6f5228b8fcd3c3c0ae686a51e2e04ea46923e3491a32a4bbaa89060600160405180910390a183156106eb5760408051858152602081018790529081018290527fea952b3dfe43a8e680ea58302c72429cd78ef0537abeaf75797ef9bb0496cefc9060600160405180910390a15b5050505050505050505050505050565b6000805482111561074e5760405162461bcd60e51b815260206004820152601760248201527f426c6f636b206e6f7420796574207375626d69747465640000000000000000006044820152606401610234565b6101f460005461075e9190610e53565b82101561076d57506000919050565b600261077883610d45565b6103e8811061078957610789610e27565b015492915050565b60008281526103eb6020526040812054816107ae82600019610e9f565b905060006107be866107e0610e6a565b6107c89086610e53565b6107d3906001610eb3565b9050600181101580156107e857506107e08111155b6107f4576107f4610ecb565b6107fe8282610e6a565b93505050505b92915050565b60006050821461081c5761081c610ecb565b6000610a1e6002808686604051610834929190610f54565b602060405180830381855afa158015610851573d6000803e3d6000fd5b5050506040513d601f19601f820116820180604052508101906108749190610f64565b60405160200161088691815260200190565b60408051601f19818403018152908290526108a091610f7d565b602060405180830381855afa1580156108bd573d6000803e3d6000fd5b5050506040513d601f19601f820116820180604052508101906108e09190610f64565b7bffffffff000000000000000000000000ffffffff00000000000000007eff000000ff000000ff000000ff000000ff000000ff000000ff000000ff0000600883811c9182167fff000000ff000000ff000000ff000000ff000000ff000000ff000000ff0000009490911b93841617601090811c7cff000000ff000000ff000000ff000000ff000000ff000000ff000000ff9092167dff000000ff000000ff000000ff000000ff000000ff000000ff000000ff009094169390931790921b91909117602081811c9283167fffffffff000000000000000000000000ffffffff0000000000000000000000009290911b91821617604090811c73ffffffff000000000000000000000000ffffffff90931677ffffffff000000000000000000000000ffffffff0000000090921691909117901b17608081811c91901b1790565b9050806000610a2c87610d45565b90506000548711158015610a555750816002826103e88110610a5057610a50610e27565b015414155b15610a5f57600193505b816002826103e88110610a7457610a74610e27565b01556000610a92610a8960246004898b610ee1565b6108e091610fb8565b905060006002610aa46101f482610e6a565b6001610ab36101f46002610e6a565b610abd9087610eb3565b610ac79190610e53565b610ad19190610fd6565b6103e88110610ae257610ae2610e27565b0154905080610b335760405162461bcd60e51b815260206004820152601e60248201527f706172656e7420626c6f636b206e6f7420796574207375626d697474656400006044820152606401610234565b808214610b6f5760405162461bcd60e51b815260206004820152600a602482015269189859081c185c995b9d60b21b6044820152606401610234565b6000610b7f604c60488a8c610ee1565b610b8891610fb8565b90506000610b9582610198565b9050808710610be65760405162461bcd60e51b815260206004820152601760248201527f626c6f636b20686173682061626f7665207461726765740000000000000000006044820152606401610234565b6000610bf46107e08d610e9f565b9050610c026107e08d610fd6565b600003610cbb5760006103eb81610c1a600185610e53565b81526020019081526020016000205490507f0000000000000000000000000000000000000000000000000000000000000000610ca35780600284901c10610ca35760405162461bcd60e51b815260206004820152601860248201527f3c32352520646966666963756c747920726574617267657400000000000000006044820152606401610234565b5060008181526103eb60205260409020829055610d36565b7f0000000000000000000000000000000000000000000000000000000000000000610d365760008181526103eb60205260409020548214610d365760405162461bcd60e51b815260206004820152601560248201527477726f6e6720646966666963756c7479206269747360581b6044820152606401610234565b50505050505050509392505050565b6000610d546101f46002610e6a565b6000546103ea548490610d6a6101f46002610e6a565b610d749190610eb3565b610d7e9190610eb3565b610d889190610e53565b6108049190610fd6565b600060208284031215610da457600080fd5b5035919050565b600080600060408486031215610dc057600080fd5b83359250602084013567ffffffffffffffff80821115610ddf57600080fd5b818601915086601f830112610df357600080fd5b813581811115610e0257600080fd5b876020828501011115610e1457600080fd5b6020830194508093505050509250925092565b634e487b7160e01b600052603260045260246000fd5b634e487b7160e01b600052601160045260246000fd5b600082821015610e6557610e65610e3d565b500390565b6000816000190483118215151615610e8457610e84610e3d565b500290565b634e487b7160e01b600052601260045260246000fd5b600082610eae57610eae610e89565b500490565b60008219821115610ec657610ec6610e3d565b500190565b634e487b7160e01b600052600160045260246000fd5b60008085851115610ef157600080fd5b83861115610efe57600080fd5b5050820193919092039150565b600060018201610f1d57610f1d610e3d565b5060010190565b6001600160e01b03198135818116916004851015610f4c5780818660040360031b1b83161692505b505092915050565b8183823760009101908152919050565b600060208284031215610f7657600080fd5b5051919050565b6000825160005b81811015610f9e5760208186018101518583015201610f84565b81811115610fad576000828501525b509190910192915050565b8035602083101561080457600019602084900360031b1b1692915050565b600082610fe557610fe5610e89565b50069056fea2646970667358221220ef9c6e5b5e473273dde476098fccf851c2623232968c21458acccd4b0876cc7264736f6c634300080f0033",
    "linkReferences": {}
  },
  "methodIdentifiers": {
    "blockHashes(uint256)": "34cdf78d",
    "getBlockHash(uint256)": "ee82ac5e",
    "getLatestBlockHeight()": "e875aa5d",
    "getLatestBlockTime()": "32c25832",
    "getTarget(bytes32)": "a9c2d7ab",
    "isTestnet()": "92108c86",
    "latestBlockIx()": "e870c914",
    "longestReorg()": "76e92c84",
    "periodToTarget(uint256)": "0d2b2860",
    "submit(uint256,bytes)": "d1a2eab2"
  },
  "id": 8
}