{
  "abi": [
    {
      "inputs": [
        {
          "internalType": "uint256",
          "name": "_blockHeight",
          "type": "uint256"
        },
        {
          "internalType": "bytes32",
          "name": "_blockHash",
          "type": "bytes32"
        },
        {
          "internalType": "uint256",
          "name": "_blockTime",
          "type": "uint256"
        },
        {
          "internalType": "uint256",
          "name": "_expectedTarget",
          "type": "uint256"
        },
        {
          "internalType": "bool",
          "name": "_isTestnet",
          "type": "bool"
        }
      ],
      "stateMutability": "nonpayable",
      "type": "constructor"
    },
    {
      "anonymous": false,
      "inputs": [
        {
          "indexed": false,
          "internalType": "uint256",
          "name": "blockHeight",
          "type": "uint256"
        },
        {
          "indexed": false,
          "internalType": "uint256",
          "name": "blockTime",
          "type": "uint256"
        },
        {
          "indexed": false,
          "internalType": "bytes32",
          "name": "blockHash",
          "type": "bytes32"
        }
      ],
      "name": "NewTip",
      "type": "event"
    },
    {
      "anonymous": false,
      "inputs": [
        {
          "indexed": false,
          "internalType": "uint256",
          "name": "blockHeight",
          "type": "uint256"
        },
        {
          "indexed": false,
          "internalType": "uint256",
          "name": "totalDifficulty",
          "type": "uint256"
        },
        {
          "indexed": false,
          "internalType": "uint32",
          "name": "newDifficultyBits",
          "type": "uint32"
        }
      ],
      "name": "NewTotalDifficultySinceRetarget",
      "type": "event"
    },
    {
      "anonymous": false,
      "inputs": [
        {
          "indexed": false,
          "internalType": "uint256",
          "name": "count",
          "type": "uint256"
        },
        {
          "indexed": false,
          "internalType": "bytes32",
          "name": "oldTip",
          "type": "bytes32"
        },
        {
          "indexed": false,
          "internalType": "bytes32",
          "name": "newTip",
          "type": "bytes32"
        }
      ],
      "name": "Reorg",
      "type": "event"
    },
    {
      "inputs": [
        {
          "internalType": "uint256",
          "name": "number",
          "type": "uint256"
        }
      ],
      "name": "getBlockHash",
      "outputs": [
        {
          "internalType": "bytes32",
          "name": "",
          "type": "bytes32"
        }
      ],
      "stateMutability": "view",
      "type": "function"
    },
    {
      "inputs": [],
      "name": "getLatestBlockHeight",
      "outputs": [
        {
          "internalType": "uint256",
          "name": "",
          "type": "uint256"
        }
      ],
      "stateMutability": "view",
      "type": "function"
    },
    {
      "inputs": [],
      "name": "getLatestBlockTime",
      "outputs": [
        {
          "internalType": "uint256",
          "name": "",
          "type": "uint256"
        }
      ],
      "stateMutability": "view",
      "type": "function"
    },
    {
      "inputs": [
        {
          "internalType": "bytes32",
          "name": "bits",
          "type": "bytes32"
        }
      ],
      "name": "getTarget",
      "outputs": [
        {
          "internalType": "uint256",
          "name": "",
          "type": "uint256"
        }
      ],
      "stateMutability": "pure",
      "type": "function"
    },
    {
      "inputs": [],
      "name": "isTestnet",
      "outputs": [
        {
          "internalType": "bool",
          "name": "",
          "type": "bool"
        }
      ],
      "stateMutability": "view",
      "type": "function"
    },
    {
      "inputs": [],
      "name": "longestReorg",
      "outputs": [
        {
          "internalType": "uint256",
          "name": "",
          "type": "uint256"
        }
      ],
      "stateMutability": "view",
      "type": "function"
    },
    {
      "inputs": [
        {
          "internalType": "uint256",
          "name": "blockHeight",
          "type": "uint256"
        },
        {
          "internalType": "bytes",
          "name": "blockHeaders",
          "type": "bytes"
        }
      ],
      "name": "submit",
      "outputs": [],
      "stateMutability": "nonpayable",
      "type": "function"
    }
  ],
  "bytecode": {
    "object": "0x60a060405234801561001057600080fd5b50604051610f2f380380610f2f83398101604081905261002f91610079565b6000858152600260205260408120859055858155600184905582906003906100596107e0896100cb565b81526020810191909152604001600020551515608052506100ed92505050565b600080600080600060a0868803121561009157600080fd5b85519450602086015193506040860151925060608601519150608086015180151581146100bd57600080fd5b809150509295509295909350565b6000826100e857634e487b7160e01b600052601260045260246000fd5b500490565b608051610e2161010e6000396000818160a70152610a680152610e216000f3fe608060405234801561001057600080fd5b506004361061007d5760003560e01c8063a9c2d7ab1161005b578063a9c2d7ab146100d9578063d1a2eab2146100ec578063e875aa5d14610101578063ee82ac5e1461010957600080fd5b806332c258321461008257806376e92c841461009957806392108c86146100a2575b600080fd5b6001545b6040519081526020015b60405180910390f35b61008660045481565b6100c97f000000000000000000000000000000000000000000000000000000000000000081565b6040519015158152602001610090565b6100866100e7366004610ba8565b610129565b6100ff6100fa366004610bc1565b61016b565b005b600054610086565b610086610117366004610ba8565b60009081526002602052604090205490565b6000600382811a90600284901a600890811b600186901a17901b84841a179083906101549084610c53565b61015f906008610c6a565b9190911b949350505050565b6000610178605083610c9f565b905081610186826050610c6a565b146101ce5760405162461bcd60e51b81526020600482015260136024820152720eee4dedcce40d0cac2c8cae440d8cadccee8d606b1b60448201526064015b60405180910390fd5b6000811161021e5760405162461bcd60e51b815260206004820152601e60248201527f6d757374207375626d6974206174206c65617374206f6e6520626c6f636b000060448201526064016101c5565b60006107e06000546102309190610c9f565b9050600060016102408488610cb3565b61024a9190610c53565b9050600061025a6107e083610c9f565b9050828110156102a45760405162461bcd60e51b81526020600482015260156024820152741bdb1908191a59999a58dd5b1d1e481c195c9a5bd9605a1b60448201526064016101c5565b60006107e06102b460018a610c53565b6102be9190610c9f565b905060008183111561032e576102d5826001610cb3565b83146102e3576102e3610ccb565b84830361031f576102f3856106ba565b6107e06000546103039190610ce1565b61030e906001610cb3565b6103189190610c6a565b905061032e565b81851461032e5761032e610ccb565b6000805481526002602052604081205490805b888110156103b1576000610355828e610cb3565b9050610391818d8d610368866050610c6a565b90610374876001610cb3565b61037f906050610c6a565b9261038c93929190610cf5565b6106dc565b61039b9084610cb3565b92505080806103a990610d1f565b915050610341565b50838511156104f4573660008b8b6103ca60018d610c53565b6103d5906050610c6a565b6103e0928290610cf5565b909250905060006104276103f8604c60488587610cf5565b61040191610d38565b60d881901c63ff00ff001662ff00ff60e89290921c9190911617601081811b91901c1790565b90506000610434896106ba565b6104406107e08c610ce1565b61044b906001610cb3565b6104559190610c6a565b90508681116104a65760405162461bcd60e51b815260206004820152601760248201527f696e73756666696369656e7420646966666963756c747900000000000000000060448201526064016101c5565b604080518b81526020810183905263ffffffff84168183015290517f452ea9c9e4985cb8cc7199131fd292d600dae30f407e749b6ca7e7f4c7690cf79181900360600190a150505050610563565b86851461050357610503610ccb565b83851461051257610512610ccb565b60005486116105635760405162461bcd60e51b815260206004820152601960248201527f696e73756666696369656e7420636861696e206c656e6774680000000000000060448201526064016101c5565b6000610570876001610cb3565b90505b600054811161059d576000818152600260205260408120558061059581610d1f565b915050610573565b5060008681556105ae600c8b610c53565b905060008b828c6105c0826004610cb3565b926105cd93929190610cf5565b6105d691610d38565b60e01c905061060381600881811c62ff00ff1663ff00ff009290911b9190911617601081811c91901b1790565b63ffffffff16600155600088815260026020526040812054600154604080518c8152602081019290925281018290529091507f11cedc7f83a9a6f5228b8fcd3c3c0ae686a51e2e04ea46923e3491a32a4bbaa89060600160405180910390a183156106aa5760408051858152602081018790529081018290527fea952b3dfe43a8e680ea58302c72429cd78ef0537abeaf75797ef9bb0496cefc9060600160405180910390a15b5050505050505050505050505050565b6000818152600360205260408120546106d581600019610c9f565b9392505050565b6000605082146106ee576106ee610ccb565b60006108f06002808686604051610706929190610d68565b602060405180830381855afa158015610723573d6000803e3d6000fd5b5050506040513d601f19601f820116820180604052508101906107469190610d78565b60405160200161075891815260200190565b60408051601f198184030181529082905261077291610d91565b602060405180830381855afa15801561078f573d6000803e3d6000fd5b5050506040513d601f19601f820116820180604052508101906107b29190610d78565b7bffffffff000000000000000000000000ffffffff00000000000000007eff000000ff000000ff000000ff000000ff000000ff000000ff000000ff0000600883811c9182167fff000000ff000000ff000000ff000000ff000000ff000000ff000000ff0000009490911b93841617601090811c7cff000000ff000000ff000000ff000000ff000000ff000000ff000000ff9092167dff000000ff000000ff000000ff000000ff000000ff000000ff000000ff009094169390931790921b91909117602081811c9283167fffffffff000000000000000000000000ffffffff0000000000000000000000009290911b91821617604090811c73ffffffff000000000000000000000000ffffffff90931677ffffffff000000000000000000000000ffffffff0000000090921691909117901b17608081811c91901b1790565b6000868152600260205260409020549091508181158015906109125750808214155b1561091c57600193505b600087815260026020526040812082905561094761093e60246004898b610cf5565b6107b291610dcc565b90506002600061095860018b610c53565b81526020019081526020016000205481146109a25760405162461bcd60e51b815260206004820152600a602482015269189859081c185c995b9d60b21b60448201526064016101c5565b806109ef5760405162461bcd60e51b815260206004820152601e60248201527f706172656e7420626c6f636b206e6f7420796574207375626d6974746564000060448201526064016101c5565b60006109ff604c6048898b610cf5565b610a0891610dcc565b90506000610a1582610129565b9050808610610a665760405162461bcd60e51b815260206004820152601760248201527f626c6f636b20686173682061626f76652074617267657400000000000000000060448201526064016101c5565b7f000000000000000000000000000000000000000000000000000000000000000015610a97575050505050506106d5565b6000610aa56107e08c610c9f565b9050610ab36107e08c610ce1565b600003610b45576000600381610aca600185610c53565b815260200190815260200160002054905080600284901c10610b2e5760405162461bcd60e51b815260206004820152601860248201527f3c32352520646966666963756c7479207265746172676574000000000000000060448201526064016101c5565b506000818152600360205260409020829055610b9a565b6000818152600360205260409020548214610b9a5760405162461bcd60e51b815260206004820152601560248201527477726f6e6720646966666963756c7479206269747360581b60448201526064016101c5565b505050505050509392505050565b600060208284031215610bba57600080fd5b5035919050565b600080600060408486031215610bd657600080fd5b83359250602084013567ffffffffffffffff80821115610bf557600080fd5b818601915086601f830112610c0957600080fd5b813581811115610c1857600080fd5b876020828501011115610c2a57600080fd5b6020830194508093505050509250925092565b634e487b7160e01b600052601160045260246000fd5b600082821015610c6557610c65610c3d565b500390565b6000816000190483118215151615610c8457610c84610c3d565b500290565b634e487b7160e01b600052601260045260246000fd5b600082610cae57610cae610c89565b500490565b60008219821115610cc657610cc6610c3d565b500190565b634e487b7160e01b600052600160045260246000fd5b600082610cf057610cf0610c89565b500690565b60008085851115610d0557600080fd5b83861115610d1257600080fd5b5050820193919092039150565b600060018201610d3157610d31610c3d565b5060010190565b6001600160e01b03198135818116916004851015610d605780818660040360031b1b83161692505b505092915050565b8183823760009101908152919050565b600060208284031215610d8a57600080fd5b5051919050565b6000825160005b81811015610db25760208186018101518583015201610d98565b81811115610dc1576000828501525b509190910192915050565b80356020831015610de557600019602084900360031b1b165b9291505056fea2646970667358221220d864d7936552bb899e635427ac513468a414261e1577ecd7e21595618d5f961f64736f6c634300080f0033",
    "linkReferences": {}
  },
  "methodIdentifiers": {
    "getBlockHash(uint256)": "ee82ac5e",
    "getLatestBlockHeight()": "e875aa5d",
    "getLatestBlockTime()": "32c25832",
    "getTarget(bytes32)": "a9c2d7ab",
    "isTestnet()": "92108c86",
    "longestReorg()": "76e92c84",
    "submit(uint256,bytes)": "d1a2eab2"
  },
  "id": 8
}