{
  "abi": [
    {
      "inputs": [
        {
          "internalType": "uint256",
          "name": "_blockHeight",
          "type": "uint256"
        },
        {
          "internalType": "bytes32",
          "name": "_blockHash",
          "type": "bytes32"
        },
        {
          "internalType": "uint256",
          "name": "_blockTime",
          "type": "uint256"
        },
        {
          "internalType": "uint256",
          "name": "_expectedTarget",
          "type": "uint256"
        },
        {
          "internalType": "bool",
          "name": "_isTestnet",
          "type": "bool"
        }
      ],
      "stateMutability": "nonpayable",
      "type": "constructor"
    },
    {
      "anonymous": false,
      "inputs": [
        {
          "indexed": false,
          "internalType": "uint256",
          "name": "blockHeight",
          "type": "uint256"
        },
        {
          "indexed": false,
          "internalType": "uint256",
          "name": "blockTime",
          "type": "uint256"
        },
        {
          "indexed": false,
          "internalType": "bytes32",
          "name": "blockHash",
          "type": "bytes32"
        }
      ],
      "name": "NewTip",
      "type": "event"
    },
    {
      "anonymous": false,
      "inputs": [
        {
          "indexed": false,
          "internalType": "uint256",
          "name": "blockHeight",
          "type": "uint256"
        },
        {
          "indexed": false,
          "internalType": "uint256",
          "name": "totalDifficulty",
          "type": "uint256"
        },
        {
          "indexed": false,
          "internalType": "uint32",
          "name": "newDifficultyBits",
          "type": "uint32"
        }
      ],
      "name": "NewTotalDifficultySinceRetarget",
      "type": "event"
    },
    {
      "anonymous": false,
      "inputs": [
        {
          "indexed": false,
          "internalType": "uint256",
          "name": "count",
          "type": "uint256"
        },
        {
          "indexed": false,
          "internalType": "bytes32",
          "name": "oldTip",
          "type": "bytes32"
        },
        {
          "indexed": false,
          "internalType": "bytes32",
          "name": "newTip",
          "type": "bytes32"
        }
      ],
      "name": "Reorg",
      "type": "event"
    },
    {
      "inputs": [
        {
          "internalType": "uint256",
          "name": "number",
          "type": "uint256"
        }
      ],
      "name": "getBlockHash",
      "outputs": [
        {
          "internalType": "bytes32",
          "name": "",
          "type": "bytes32"
        }
      ],
      "stateMutability": "view",
      "type": "function"
    },
    {
      "inputs": [],
      "name": "getLatestBlockHeight",
      "outputs": [
        {
          "internalType": "uint256",
          "name": "",
          "type": "uint256"
        }
      ],
      "stateMutability": "view",
      "type": "function"
    },
    {
      "inputs": [],
      "name": "getLatestBlockTime",
      "outputs": [
        {
          "internalType": "uint256",
          "name": "",
          "type": "uint256"
        }
      ],
      "stateMutability": "view",
      "type": "function"
    },
    {
      "inputs": [
        {
          "internalType": "bytes32",
          "name": "bits",
          "type": "bytes32"
        }
      ],
      "name": "getTarget",
      "outputs": [
        {
          "internalType": "uint256",
          "name": "",
          "type": "uint256"
        }
      ],
      "stateMutability": "pure",
      "type": "function"
    },
    {
      "inputs": [],
      "name": "isTestnet",
      "outputs": [
        {
          "internalType": "bool",
          "name": "",
          "type": "bool"
        }
      ],
      "stateMutability": "view",
      "type": "function"
    },
    {
      "inputs": [],
      "name": "longestReorg",
      "outputs": [
        {
          "internalType": "uint256",
          "name": "",
          "type": "uint256"
        }
      ],
      "stateMutability": "view",
      "type": "function"
    },
    {
      "inputs": [
        {
          "internalType": "uint256",
          "name": "blockHeight",
          "type": "uint256"
        },
        {
          "internalType": "bytes",
          "name": "blockHeaders",
          "type": "bytes"
        }
      ],
      "name": "submit",
      "outputs": [],
      "stateMutability": "nonpayable",
      "type": "function"
    }
  ],
  "bytecode": {
    "object": "0x60a060405234801561001057600080fd5b50604051610f43380380610f4383398101604081905261002f91610079565b6000858152600260205260408120859055858155600184905582906003906100596107e0896100cb565b81526020810191909152604001600020551515608052506100ed92505050565b600080600080600060a0868803121561009157600080fd5b85519450602086015193506040860151925060608601519150608086015180151581146100bd57600080fd5b809150509295509295909350565b6000826100e857634e487b7160e01b600052601260045260246000fd5b500490565b608051610e3561010e6000396000818160a70152610a7c0152610e356000f3fe608060405234801561001057600080fd5b506004361061007d5760003560e01c8063a9c2d7ab1161005b578063a9c2d7ab146100d9578063d1a2eab2146100ec578063e875aa5d14610101578063ee82ac5e1461010957600080fd5b806332c258321461008257806376e92c841461009957806392108c86146100a2575b600080fd5b6001545b6040519081526020015b60405180910390f35b61008660045481565b6100c97f000000000000000000000000000000000000000000000000000000000000000081565b6040519015158152602001610090565b6100866100e7366004610bbd565b610129565b6100ff6100fa366004610bd6565b61016b565b005b600054610086565b610086610117366004610bbd565b60009081526002602052604090205490565b6000600382811a90600284901a600890811b600186901a17901b84841a179083906101549084610c68565b61015f906008610c7f565b9190911b949350505050565b6000610178605083610cb4565b905081610186826050610c7f565b146101ce5760405162461bcd60e51b81526020600482015260136024820152720eee4dedcce40d0cac2c8cae440d8cadccee8d606b1b60448201526064015b60405180910390fd5b6000811161021e5760405162461bcd60e51b815260206004820152601e60248201527f6d757374207375626d6974206174206c65617374206f6e6520626c6f636b000060448201526064016101c5565b60006107e06000546102309190610cb4565b9050600060016102408488610cc8565b61024a9190610c68565b9050600061025a6107e083610cb4565b9050828110156102a45760405162461bcd60e51b81526020600482015260156024820152741bdb1908191a59999a58dd5b1d1e481c195c9a5bd9605a1b60448201526064016101c5565b60006107e06102b460018a610c68565b6102be9190610cb4565b905060008183111561030c576102d5826001610cc8565b83146102e3576102e3610ce0565b8483036102fd576102f685600054610678565b905061030c565b81851461030c5761030c610ce0565b6000805481526002602052604081205490805b8881101561038f576000610333828e610cc8565b905061036f818d8d610346866050610c7f565b90610352876001610cc8565b61035d906050610c7f565b9261036a93929190610cf6565b6106f0565b6103799084610cc8565b925050808061038790610d20565b91505061031f565b50838511156104ed573660008b8b6103a860018d610c68565b6103b3906050610c7f565b6103be928290610cf6565b909250905060006104056103d6604c60488587610cf6565b6103df91610d39565b60d881901c63ff00ff001662ff00ff60e89290921c9190911617601081811b91901c1790565b90506000610413898b610678565b90508681116104645760405162461bcd60e51b815260206004820152601d60248201527f696e73756666696369656e7420746f74616c20646966666963756c747900000060448201526064016101c5565b60006104718b6001610cc8565b90505b600054811161049e576000818152600260205260408120558061049681610d20565b915050610474565b50604080518b81526020810183905263ffffffff84168183015290517f452ea9c9e4985cb8cc7199131fd292d600dae30f407e749b6ca7e7f4c7690cf79181900360600190a15050505061055c565b8685146104fc576104fc610ce0565b83851461050b5761050b610ce0565b600054861161055c5760405162461bcd60e51b815260206004820152601960248201527f696e73756666696369656e7420636861696e206c656e6774680000000000000060448201526064016101c5565b600086815561056c600c8b610c68565b905060008b828c61057e826004610cc8565b9261058b93929190610cf6565b61059491610d39565b60e01c90506105c181600881811c62ff00ff1663ff00ff009290911b9190911617601081811c91901b1790565b63ffffffff16600155600088815260026020526040812054600154604080518c8152602081019290925281018290529091507f11cedc7f83a9a6f5228b8fcd3c3c0ae686a51e2e04ea46923e3491a32a4bbaa89060600160405180910390a183156106685760408051858152602081018790529081018290527fea952b3dfe43a8e680ea58302c72429cd78ef0537abeaf75797ef9bb0496cefc9060600160405180910390a15b5050505050505050505050505050565b6000828152600360205260408120548161069482600019610cb4565b905060006106a4866107e0610c7f565b6106ae9086610c68565b6106b9906001610cc8565b9050600181101580156106ce57506107e08111155b6106da576106da610ce0565b6106e48282610c7f565b93505050505b92915050565b60006050821461070257610702610ce0565b6000610904600280868660405161071a929190610d69565b602060405180830381855afa158015610737573d6000803e3d6000fd5b5050506040513d601f19601f8201168201806040525081019061075a9190610d79565b60405160200161076c91815260200190565b60408051601f198184030181529082905261078691610d92565b602060405180830381855afa1580156107a3573d6000803e3d6000fd5b5050506040513d601f19601f820116820180604052508101906107c69190610d79565b7bffffffff000000000000000000000000ffffffff00000000000000007eff000000ff000000ff000000ff000000ff000000ff000000ff000000ff0000600883811c9182167fff000000ff000000ff000000ff000000ff000000ff000000ff000000ff0000009490911b93841617601090811c7cff000000ff000000ff000000ff000000ff000000ff000000ff000000ff9092167dff000000ff000000ff000000ff000000ff000000ff000000ff000000ff009094169390931790921b91909117602081811c9283167fffffffff000000000000000000000000ffffffff0000000000000000000000009290911b91821617604090811c73ffffffff000000000000000000000000ffffffff90931677ffffffff000000000000000000000000ffffffff0000000090921691909117901b17608081811c91901b1790565b6000868152600260205260409020549091508181158015906109265750808214155b1561093057600193505b600087815260026020526040812082905561095b61095260246004898b610cf6565b6107c691610dcd565b90506002600061096c60018b610c68565b81526020019081526020016000205481146109b65760405162461bcd60e51b815260206004820152600a602482015269189859081c185c995b9d60b21b60448201526064016101c5565b80610a035760405162461bcd60e51b815260206004820152601e60248201527f706172656e7420626c6f636b206e6f7420796574207375626d6974746564000060448201526064016101c5565b6000610a13604c6048898b610cf6565b610a1c91610dcd565b90506000610a2982610129565b9050808610610a7a5760405162461bcd60e51b815260206004820152601760248201527f626c6f636b20686173682061626f76652074617267657400000000000000000060448201526064016101c5565b7f000000000000000000000000000000000000000000000000000000000000000015610aab57505050505050610bb6565b6000610ab96107e08c610cb4565b9050610ac76107e08c610deb565b600003610b59576000600381610ade600185610c68565b815260200190815260200160002054905080600284901c10610b425760405162461bcd60e51b815260206004820152601860248201527f3c32352520646966666963756c7479207265746172676574000000000000000060448201526064016101c5565b506000818152600360205260409020829055610bae565b6000818152600360205260409020548214610bae5760405162461bcd60e51b815260206004820152601560248201527477726f6e6720646966666963756c7479206269747360581b60448201526064016101c5565b505050505050505b9392505050565b600060208284031215610bcf57600080fd5b5035919050565b600080600060408486031215610beb57600080fd5b83359250602084013567ffffffffffffffff80821115610c0a57600080fd5b818601915086601f830112610c1e57600080fd5b813581811115610c2d57600080fd5b876020828501011115610c3f57600080fd5b6020830194508093505050509250925092565b634e487b7160e01b600052601160045260246000fd5b600082821015610c7a57610c7a610c52565b500390565b6000816000190483118215151615610c9957610c99610c52565b500290565b634e487b7160e01b600052601260045260246000fd5b600082610cc357610cc3610c9e565b500490565b60008219821115610cdb57610cdb610c52565b500190565b634e487b7160e01b600052600160045260246000fd5b60008085851115610d0657600080fd5b83861115610d1357600080fd5b5050820193919092039150565b600060018201610d3257610d32610c52565b5060010190565b6001600160e01b03198135818116916004851015610d615780818660040360031b1b83161692505b505092915050565b8183823760009101908152919050565b600060208284031215610d8b57600080fd5b5051919050565b6000825160005b81811015610db35760208186018101518583015201610d99565b81811115610dc2576000828501525b509190910192915050565b803560208310156106ea57600019602084900360031b1b1692915050565b600082610dfa57610dfa610c9e565b50069056fea2646970667358221220d38fee705f0062b2e2bf424740a5afd4f4def345f0a6c90b036e7f9fe266017a64736f6c634300080f0033",
    "linkReferences": {}
  },
  "methodIdentifiers": {
    "getBlockHash(uint256)": "ee82ac5e",
    "getLatestBlockHeight()": "e875aa5d",
    "getLatestBlockTime()": "32c25832",
    "getTarget(bytes32)": "a9c2d7ab",
    "isTestnet()": "92108c86",
    "longestReorg()": "76e92c84",
    "submit(uint256,bytes)": "d1a2eab2"
  },
  "id": 8
}