{
  "abi": [
    {
      "inputs": [
        {
          "internalType": "contract IBtcMirror",
          "name": "_mirror",
          "type": "address"
        }
      ],
      "stateMutability": "nonpayable",
      "type": "constructor"
    },
    {
      "inputs": [],
      "name": "mirror",
      "outputs": [
        {
          "internalType": "contract IBtcMirror",
          "name": "",
          "type": "address"
        }
      ],
      "stateMutability": "view",
      "type": "function"
    },
    {
      "inputs": [
        {
          "internalType": "uint256",
          "name": "minConfirmations",
          "type": "uint256"
        },
        {
          "internalType": "uint256",
          "name": "blockNum",
          "type": "uint256"
        },
        {
          "components": [
            {
              "internalType": "bytes",
              "name": "blockHeader",
              "type": "bytes"
            },
            {
              "internalType": "bytes32",
              "name": "txId",
              "type": "bytes32"
            },
            {
              "internalType": "uint256",
              "name": "txIndex",
              "type": "uint256"
            },
            {
              "internalType": "bytes",
              "name": "txMerkleProof",
              "type": "bytes"
            },
            {
              "internalType": "bytes",
              "name": "rawTx",
              "type": "bytes"
            }
          ],
          "internalType": "struct BtcTxProof",
          "name": "inclusionProof",
          "type": "tuple"
        },
        {
          "internalType": "uint256",
          "name": "txOutIx",
          "type": "uint256"
        },
        {
          "internalType": "bytes20",
          "name": "destScriptHash",
          "type": "bytes20"
        },
        {
          "internalType": "uint256",
          "name": "amountSats",
          "type": "uint256"
        }
      ],
      "name": "verifyPayment",
      "outputs": [
        {
          "internalType": "bool",
          "name": "",
          "type": "bool"
        }
      ],
      "stateMutability": "view",
      "type": "function"
    }
  ],
  "bytecode": {
    "object": "0x60a060405234801561001057600080fd5b506040516113c13803806113c183398101604081905261002f91610040565b6001600160a01b0316608052610070565b60006020828403121561005257600080fd5b81516001600160a01b038116811461006957600080fd5b9392505050565b60805161132a6100976000396000818160680152818160a7015261021d015261132a6000f3fe608060405234801561001057600080fd5b50600436106100365760003560e01c80630d295aea1461003b578063444d917214610063575b600080fd5b61004e610049366004610ff0565b6100a2565b60405190151581526020015b60405180910390f35b61008a7f000000000000000000000000000000000000000000000000000000000000000081565b6040516001600160a01b03909116815260200161005a565b6000807f00000000000000000000000000000000000000000000000000000000000000006001600160a01b031663e875aa5d6040518163ffffffff1660e01b8152600401602060405180830381865afa158015610103573d6000803e3d6000fd5b505050506040513d601f19601f820116820180604052508101906101279190611079565b9050868110156101915760405162461bcd60e51b815260206004820152602a60248201527f426974636f696e204d6972726f7220646f65736e27742068617665207468617460448201526908189b1bd8dac81e595d60b21b60648201526084015b60405180910390fd5b61019b87896110a8565b6101a68260016110a8565b10156102035760405162461bcd60e51b815260206004820152602660248201527f4e6f7420656e6f75676820426974636f696e20626c6f636b20636f6e6669726d6044820152656174696f6e7360d01b6064820152608401610188565b50604051637741562f60e11b8152600481018790526000907f00000000000000000000000000000000000000000000000000000000000000006001600160a01b03169063ee82ac5e90602401602060405180830381865afa15801561026c573d6000803e3d6000fd5b505050506040513d601f19601f820116820180604052508101906102909190611079565b905061029f81878787876102f9565b6102eb5760405162461bcd60e51b815260206004820152601960248201527f496e76616c6964207472616e73616374696f6e2070726f6f66000000000000006044820152606401610188565b506001979650505050505050565b60008561030e61030987806110c0565b610538565b146103515760405162461bcd60e51b8152602060048201526013602482015272084d8dec6d640d0c2e6d040dad2e6dac2e8c6d606b1b6044820152606401610188565b600061036561036087806110c0565b61061d565b905060006103886020880135604089013561038360608b018b6110c0565b61064a565b90508082146103d95760405162461bcd60e51b815260206004820152601760248201527f5478206d65726b6c6520726f6f74206d69736d617463680000000000000000006044820152606401610188565b60208701356103f36103ee60808a018a6110c0565b61073d565b146104315760405162461bcd60e51b815260206004820152600e60248201526d0a8f040928840dad2e6dac2e8c6d60931b6044820152606401610188565b600061044861044360808a018a6110c0565b61077f565b90506000816060015188815181106104625761046261110e565b602002602001015190506000610486826020015163ffffffff168360400151610c4a565b90506001600160601b0319888116908216146104db5760405162461bcd60e51b81526020600482015260146024820152730a6c6e4d2e0e840d0c2e6d040dad2e6dac2e8c6d60631b6044820152606401610188565b815167ffffffffffffffff1687146105275760405162461bcd60e51b815260206004820152600f60248201526e082dadeeadce840dad2e6dac2e8c6d608b1b6044820152606401610188565b5060019a9950505050505050505050565b60006050821461054757600080fd5b6000600280858560405161055c929190611124565b602060405180830381855afa158015610579573d6000803e3d6000fd5b5050506040513d601f19601f8201168201806040525081019061059c9190611079565b6040516020016105ae91815260200190565b60408051601f19818403018152908290526105c891611134565b602060405180830381855afa1580156105e5573d6000803e3d6000fd5b5050506040513d601f19601f820116820180604052508101906106089190611079565b905061061381610cd5565b9150505b92915050565b60006050821461062c57600080fd5b61063a60446024848661116f565b61064391611199565b9392505050565b60008061065686610cd5565b905060006106656020856111b7565b905060005b818110156107315760006106b687876106848560206111d9565b906106908660016110a8565b61069b9060206111d9565b926106a89392919061116f565b6106b191611199565b610cd5565b9050600188166000036106f75760408051602081018690529081018290526106f0906060015b604051602081830303815290604052610e13565b9350610717565b6040805160208101839052908101859052610714906060016106dc565b93505b5060019690961c9580610729816111f8565b91505061066a565b50909695505050505050565b60008061060884848080601f016020809104026020016040519081016040528093929190818152602001838380828437600092019190915250610e1392505050565b6107bf6040518060a00160405280600015158152602001600063ffffffff1681526020016060815260200160608152602001600063ffffffff1681525090565b6107ff6107d060046000858761116f565b6107d991611211565b60d881901c63ff00ff001662ff00ff60e89290921c9190911617601081811b91901c1790565b63ffffffff16602082018190526001118061082457506002816020015163ffffffff16115b6106175760046000610837858584610ed2565b925090508067ffffffffffffffff81111561085457610854611241565b6040519080825280602002602001820160405280156108ad57816020015b6040805160a0810182526000808252602080830182905292820181905260608201819052608082015282526000199092019101816108725790505b50604084015260005b81811015610a11576040805160a0810182526000808252602082018190529181018290526060810182905260808101919091526108fa87858861069b8260206110a8565b81526109076020856110a8565b935061092787858861091a8260046110a8565b926107d09392919061116f565b63ffffffff16602082015261093d6004856110a8565b9350600061094c888887610ed2565b9550905060208111156109715760405162461bcd60e51b815260040161018890611257565b63ffffffff8116606083015287858861098a84836110a8565b926109979392919061116f565b6109a091611199565b60808301526109af81866110a8565b94506109c288868961091a8260046110a8565b63ffffffff1660408301526109d86004866110a8565b945081866040015184815181106109f1576109f161110e565b602002602001018190525050508080610a09906111f8565b9150506108b6565b506000610a1f868685610ed2565b935090508067ffffffffffffffff811115610a3c57610a3c611241565b604051908082528060200260200182016040528015610a8757816020015b6040805160608101825260008082526020808301829052928201528252600019909201910181610a5a5790505b50606085015260005b81811015610c04576040805160608101825260008082526020820181905291810191909152610b42888689610ac68260086110a8565b92610ad39392919061116f565b610adc91611298565b60c01c65ff000000ff00600882811b91821664ff000000ff9390911c92831617601090811b67ff000000ff0000009290921666ff000000ff0000939093169290921790911c17602081811b6bffffffffffffffff000000001691901c63ffffffff161790565b67ffffffffffffffff168152610b596008866110a8565b94506000610b68898988610ed2565b965090506020811115610b8d5760405162461bcd60e51b815260040161018890611257565b63ffffffff81166020830152888689610ba684836110a8565b92610bb39392919061116f565b610bbc91611199565b6040830152610bcb81876110a8565b95508187606001518481518110610be457610be461110e565b602002602001018190525050508080610bfc906111f8565b915050610a90565b50610c1686848761091a8260046110a8565b63ffffffff166080850152610c2c6004846110a8565b9250848314610c3d57505050610617565b5050600182525092915050565b600082601714610c5c57506000610617565b60a960f81b6001600160f81b0319600084901a60f81b16141580610c955750600560fa1b6001600160f81b0319600184901a60f81b1614155b80610cb55750608760f81b6001600160f81b0319601684901a60f81b1614155b15610cc257506000610617565b5060101b6001600160601b031916919050565b7bffffffff000000000000000000000000ffffffff00000000000000007eff000000ff000000ff000000ff000000ff000000ff000000ff000000ff0000600883811c9182167fff000000ff000000ff000000ff000000ff000000ff000000ff000000ff0000009490911b93841617601090811c7cff000000ff000000ff000000ff000000ff000000ff000000ff000000ff9092167dff000000ff000000ff000000ff000000ff000000ff000000ff000000ff009094169390931790921b91909117602081811c9283167fffffffff000000000000000000000000ffffffff0000000000000000000000009290911b91821617604090811c73ffffffff000000000000000000000000ffffffff90931677ffffffff000000000000000000000000ffffffff0000000090921691909117901b17608081811c91901b1790565b600060028083604051610e269190611134565b602060405180830381855afa158015610e43573d6000803e3d6000fd5b5050506040513d601f19601f82011682018060405250810190610e669190611079565b604051602001610e7891815260200190565b60408051601f1981840301815290829052610e9291611134565b602060405180830381855afa158015610eaf573d6000803e3d6000fd5b5050506040513d601f19601f820116820180604052508101906106179190611079565b6000806000858585818110610ee957610ee961110e565b919091013560f81c91505060fd811015610f155760ff81169250610f0e8460016110a8565b9150610fe7565b8060ff1660fd03610f7757610f668686610f308760016110a8565b90610f3c8860036110a8565b92610f499392919061116f565b610f52916112c6565b60e881901c62ffff001660f89190911c1790565b61ffff169250610f0e8460036110a8565b8060ff1660fe03610fb157610f9e8686610f928760016110a8565b9061091a8860056110a8565b63ffffffff169250610f0e8460056110a8565b610fcd8686610fc18760016110a8565b90610ac68860096110a8565b67ffffffffffffffff169250610fe48460096110a8565b91505b50935093915050565b60008060008060008060c0878903121561100957600080fd5b8635955060208701359450604087013567ffffffffffffffff81111561102e57600080fd5b870160a0818a03121561104057600080fd5b93506060870135925060808701356001600160601b03198116811461106457600080fd5b8092505060a087013590509295509295509295565b60006020828403121561108b57600080fd5b5051919050565b634e487b7160e01b600052601160045260246000fd5b600082198211156110bb576110bb611092565b500190565b6000808335601e198436030181126110d757600080fd5b83018035915067ffffffffffffffff8211156110f257600080fd5b60200191503681900382131561110757600080fd5b9250929050565b634e487b7160e01b600052603260045260246000fd5b8183823760009101908152919050565b6000825160005b81811015611155576020818601810151858301520161113b565b81811115611164576000828501525b509190910192915050565b6000808585111561117f57600080fd5b8386111561118c57600080fd5b5050820193919092039150565b8035602083101561061757600019602084900360031b1b1692915050565b6000826111d457634e487b7160e01b600052601260045260246000fd5b500490565b60008160001904831182151516156111f3576111f3611092565b500290565b60006001820161120a5761120a611092565b5060010190565b6001600160e01b031981358181169160048510156112395780818660040360031b1b83161692505b505092915050565b634e487b7160e01b600052604160045260246000fd5b60208082526021908201527f53637269707473206f76657220333220627974657320756e737570706f7274656040820152601960fa1b606082015260800190565b6001600160c01b031981358181169160088510156112395760089490940360031b84901b1690921692915050565b6001600160f01b031981358181169160028510156112395760029490940360031b84901b169092169291505056fea264697066735822122084e0038eded5e388ad51a3785ab2a078f68ed36a24036c2ceaad8433caa9244064736f6c634300080f0033",
    "linkReferences": {}
  },
  "methodIdentifiers": {
    "mirror()": "444d9172",
    "verifyPayment(uint256,uint256,(bytes,bytes32,uint256,bytes,bytes),uint256,bytes20,uint256)": "0d295aea"
  },
  "id": 10
}